:100000000C94A4010C94DC010C94DC010C94DC0134
:100010000C94DC010C94DC010C94DC010C94DC01EC
:100020000C94DC010C94DC010C94831D0C94571E81
:100030000C9474180C94DC010C94DC010C94DC011D
:100040000C94DC010C94DC010C94DC010C94DC01BC
:100050000C94DC010C94FB180C94DC010C94DC0176
:100060000C94DC010C94DC010C94DC010C94DC019C
:100070000C94DC010C94DC010C94DC010C94DC018C
:100080000C94DC010C94DC010C94DC010C94DC017C
:100090000C94DC010C94DC010C94DC010C94DC016C
:1000A0000C94DC010C94DC010C94DC010000520087
:1000B0000000000000000B0000000500A800500038
:1000C00051004F0029002800040016000700090015
:1000D000000000000000520000001D001B00060090
:1000E00019000000010000000000000001000000F5
:1000F0000100010001000100010001000100C35CDA
:10010000C45CC65CC75C0000000000000100000089
:10011000C85CC95CCA5CCB5C000101010101010142
:1001200001010202020202020202020303030303AC
:10013000030303040404040404040505050505067B
:100140000606060607070707070808080809090939
:10015000090A0A0A0B0B0B0C0C0C0D0D0D0E0E0EE2
:100160000F0F0F1010111111121213131414151573
:1001700016161717181819191A1A1B1B1C1D1D1EE5
:100180001E1F202021222223242425262627282939
:10019000292A2B2C2D2D2E2F303132323334353667
:1001A0003738393A3B3C3D3E3F4041424344454667
:1001B0004748494A4C4D4E4F505153545556585943
:1001C0005A5B5D5E5F616264656668696B6C6D6FEA
:1001D0007072737577787A7B7D7E8082838587885D
:1001E0008A8C8E8F91939596989A9C9EA0A2A3A597
:1001F000A7A9ABADAFB1B3B5B7BABCBEC0C2C4C698
:10020000C9CBCDCFD1D4D6D8DBDDDFE2E4E7E9EB53
:10021000EEF0F3F5F8FAFDFF0C03540069007400EA
:1002200061006E0000002203570065006900720043
:1002300064004C006900740074006C0065004B00A1
:1002400065006500620073000000040309040902F0
:100250003B00020100A0FA090400000103010100B3
:100260000921110100012240000705810308000156
:10027000090401000103000000092111010001220D
:100280006D0007058203200001120100020000003A
:1002900008EDFE606001000102000105010980A176
:1002A00001850319012AB700150126B700950175CC
:1002B000108100C0050C0901A101850419012AA0C3
:1002C00002150126A002950175108100C0050109E3
:1002D00006A1018506050719E029E7150025019506
:1002E00008750181020507190029EF150025019500
:1002F000F07501810205081901290595057501911F
:1003000002950175039101C005010906A1010507C8
:1003100019E029E71500250195087501810295016D
:10032000750881010507190029FF150026FF0095B2
:1003300006750881000508190129059505750191C3
:1003400002950175039101C011241FBECFEFDAE0C1
:10035000DEBFCDBF04B603FE18C08091DC029091D1
:10036000DD02A091DE02B091DF028730904BA74002
:10037000B04B59F41092DC021092DD021092DE02B2
:100380001092DF02E0E0F8E3099511E0A0E0B1E0AF
:10039000E2EBF1E402C005900D92A439B107D9F760
:1003A00022E0A4E9B1E001C01D92AC3DB207E1F743
:1003B0000E94FB100C94C1200C9400001F93CF935B
:1003C000DF93182FD62F0E94AF15C82F882351F026
:1003D000123040F46AE070E0DD2349F089EA0E94BF
:1003E0001804CD2F8C2FDF91CF911F9108958AEAA9
:1003F0000E941804F7CF089581E0089581E00895E0
:100400000E94FE01089508950E9403020895A5E048
:10041000B0E0EDE0F2E00C943B2049835A83309148
:100420009B0189819A81311119C0662399F0222399
:1004300089F00E94E107182F682F89819A810E9414
:10044000BD0769817A81812F0E946E0E2596E3E0B7
:100450000C9457200E94CF07182FF3CF0E94E1077A
:1004600069817A81F1CFFC01262F4081518162811F
:10047000738184810E940702089581E00895CF93DB
:10048000DF93EC0160E00E943302BE010E9404028F
:10049000DF91CF9108950E94940F08950E94980FC4
:1004A000089508950E9488060E9451022FEF84E368
:1004B0009CE0215080409040E1F700C0000008958A
:1004C0000E9452020E941F1908950E9452020E9427
:1004D000431908950F931F93CF93DF938C0161E02D
:1004E0000E943302EC01B8010E940002811106C093
:1004F00080E0DF91CF911F910F910895B801CE0157
:100500000E94BD168823A1F3B801CE010E943A14BF
:10051000882371F3B801CE010E942F16882341F37E
:10052000B801CE010E949513882311F3F80182814E
:10053000882361F0CB35FDE5DF0701F158F4C115E3
:10054000ECE5DE0791F0CF3DDC4591F0C8010E945B
:10055000FC01CFCFCD358DE5D80769F090F0C83AD2
:10056000DD45A1F70E946502C3CF0E946002C0CFA3
:100570000E94940CF7CF0E94D90BE8CF0E94E30BA6
:10058000E5CF0E94E70BE2CF0E9450180E94E102E3
:1005900008950E94E5020E945518089508950E944A
:1005A000CE02089581E008950E94D2020895089530
:1005B000CF93C82F0E94CF028C2F0E94D402CF91DC
:1005C000089580E00E94D80208950E9419170E94A1
:1005D000D8020895CF930E941917C82F80919601D1
:1005E0008C1779F0C09396010E94E01860939701F0
:1005F000709398018093990190939A018C2F0E9497
:10060000D802CF910895ABE0B0E0E9E0F3E00C94BC
:100610003C204F83588769877A878B8761110E94B6
:10062000240B1E821D8285E0FE013796DE011196A5
:1006300001900D928A95E1F78C819D81892B61F45F
:1006400049815A816B817C818D819E810E944D0AF6
:100650002B96E2E00C94582089819A8189238F3F60
:1006600079F3CE0101960E943D028111E9CFF0CFCE
:10067000FC01808191810E9413080895CF93C82FB7
:100680008823C9F08238C9F40E94191781FD13C06C
:1006900089E30E94DC0A0E94450B2FEF87EE93E06E
:1006A000215080409040E1F700C0000089E30E94A3
:1006B000E40A0E94450BCF9108958338A1F40E946B
:1006C000191780FDF8CF83E50E94DC0A0E94450BD4
:1006D0002FEF81EE94E0215080409040E1F700C080
:1006E000000083E5E4CF8438A1F40E94191782FD4D
:1006F000E2CF87E40E94DC0A0E94450B2FEF81EED7
:1007000094E0215080409040E1F700C0000087E471
:10071000CECF8CEF8C0F813A90F46C2F809100013A
:10072000909101010E948017882329F08C2F0E944C
:10073000E40A0E94450B8C2F0E94DC0ABACF80E2AB
:100740008C0F883048F4C77081E001C0880FCA95CB
:10075000EAF70E94070BADCFEBE5EC0FE33040F476
:10076000F0E0EE5BFE4F808190E00E944017A3CF47
:10077000C85AC73108F09FCFEC2FF0E0EE0FFF1FF3
:10078000EC5EFE4F808191810E94561794CF8823A2
:1007900009F44DC0823879F40E94191781FF47C0CF
:1007A00089E30E94DC0A0E94450B89E30E94E40A67
:1007B0000E94450B0895833859F40E94191780FF51
:1007C00036C083E50E94DC0A0E94450B83E5EECF2C
:1007D000843859F40E94191782FF29C087E40E94C7
:1007E000DC0A0E94450B87E4E1CF9CEF980F913A19
:1007F000E8F290E2980F983050F4877091E001C0D1
:10080000990F8A95EAF7892F0E940D0BD1CF9BE5AE
:10081000980F933028F490E080E00E9440170895EC
:10082000885A873120F490E080E00E94561708959E
:100830001F93CF93DF93182FEB010E943E03209765
:1008400039F4812F0E94C703DF91CF911F91089542
:100850008FE99FE00197F1F700C000002197EFCFEB
:1008600070E060E0893311F460E570E00E941804E4
:100870000895882321F00E94070B0E94450B0895DC
:10088000882321F00E940D0B0E94450B0895B0E0D3
:10089000A0E0EDE4F4E00C9435206C01D62FC72FD6
:1008A000FC011281F580F2949FE0F9220E94FD0A7A
:1008B000E82E8823B9F0E12E1123A1F08C2F807F40
:1008C000803421F080E28D0F8830D0F080917D025D
:1008D00082FF16C082E00E94A80B0E94FD0A91E0F0
:1008E000E82EE926BC2EB2948FE0B822FBE0FB157F
:1008F00008F468C0EB2DF0E0ED53FF4D0C9426207A
:10090000E12CF0CF0C2F0F70C07F11F00295007F0B
:10091000112399F0002359F080E28D0F883010F0F8
:10092000D11107C0802F0E94070B0E94450B8D2F0D
:1009300041C0802F0E94170BF8CF8D2F0E94C70354
:10094000002309F43FC080E28D0F883010F0D111F0
:1009500004C0802F0E940D0B03C0802F0E941D0B2E
:100960000E94450B2FC00C2F0F70C07FC03211F0BA
:100970000295007FDD2381F0D13009F463C011239B
:1009800009F46DC0FF2009F463C0F601858180FF82
:10099000CECF8F7085835CC080917D0282FD33C095
:1009A000112359F0002329F0802F0E94070B0E9489
:1009B000450B80E00E943E0305C080E00E94C70313
:1009C0000111C7CFEB2DE850FF0B349720F40E94A4
:1009D00019170E94D802EE2089F00E94F90A80FDC2
:1009E0000DC0F60112820E94F30A0E941B07C60185
:1009F0000E944C060E94F30A0E942B07CDB7DEB777
:100A0000E9E00C945120112389F0F11006C00E94F6
:100A1000270B802B0E943904D5CF21E0F212F7CFAB
:100A20000E94270B802B0E942E0BCCCFF11006C00A
:100A30000E943B0B802F0E944004C4CF31E0F3168C
:100A400009F2F6CF112331F085E08F1508F4BACF03
:100A5000802FE0CF94E09F1508F4B4CFEBCFFF20B8
:100A600049F3D93349F4FFEF27EE33E0F15020404A
:100A70003040E1F700C000008D2F0E94C703A2CFD5
:100A80008C2F86958695837069F0813009F09ACF16
:100A90008D2F9C2F9370111102C090E080E00E9476
:100AA000561790CF8D2F9C2F9370111102C090E09C
:100AB00080E00E94401786CF8C2F8370A1F5111122
:100AC00081CF4D2F429546954770440F440F2D2FEF
:100AD0002F7030E0042E02C0220F331F0A94E2F779
:100AE00090E080E0D4FF09C08FE090E002C0880F62
:100AF000991F4A95E2F780959095C695C695C37063
:100B0000822B932BC23049F058F4C13019F00E9467
:100B1000E90658CF0E94E00655CF0E94F20652CF58
:100B20000E94DD064FCF8695112311F08C2F817026
:100B3000882309F447CF4D2F429546954770440FBF
:100B4000440F2D2F2F7030E0042E02C0220F331FD0
:100B50000A94E2F790E080E0D4FF09C08FE090E0D3
:100B600002C0880F991F4A95E2F780959095C69527
:100B7000C695C370822B932BC23049F058F4C13014
:100B800019F00E9456071ECF0E944D071BCF0E94EE
:100B90005F0718CF0E94010715CFCF70112329F0EE
:100BA0008C2F0E941B078D2F35CF8D2F0E94400464
:100BB0008C2F0E942B0706CFD23F51F160F4D03F1B
:100BC000B9F0D13F81F0112309F449C0F110AFCE43
:100BD0008C2F8F7121C0D33F11F1D43FA1F78091A9
:100BE0007D0282FD26C08C2F8F71112311F314C05A
:100BF000112349F084E08F1508F4E4CE8C2F8F7117
:100C00000E943D07DFCE95E09F1508F4DBCEF6CFBE
:100C10008C2F8F711111CDCF0E941B07D3CE1123C2
:100C200029F08C2F8F710E940F07CCCE0E940A07EB
:100C3000C9CE112349F0CF718C2F0E941B0763E0AE
:100C40008C2F0E948A0BBECE81E00E94A80BE1E0AF
:100C5000EF1508F0B7CE82E00E94A80BB3CEF110DA
:100C600000CF8C2F8F71A5CF0F931F93CF93DF935E
:100C7000EC01688179818A810E941E088C010E94A2
:100C800068070E94DC06B801CE010E944704DF918C
:100C9000CF911F910F910895CF93DF93EC018B813A
:100CA0009C81892B29F08881998189238F3F51F478
:100CB000DF91CF910895CE010E943406CE010E94AB
:100CC0003F02F6CFCE010E946A028111F4CF0E944A
:100CD000FD0A882369F38A81882351F380917D027C
:100CE00082FFE6CF82E00E94A80BE2CF90E080E096
:100CF0000E94401790E080E00E9456170E94240B4B
:100D00000E94450B08950E94EC0A0E947606089501
:100D10000E94140B0E948306089592959F7096304E
:100D200091F058F4925F9F70923058F4803F19F020
:100D300030F4883E30F481E008959A5FF4CF843F28
:100D4000D1F380E00895883EB0F3813FD1F7F3CF2F
:100D5000FC0183819481892B29F0808191818923F1
:100D60008F3F11F480E00895808191810E941308E3
:100D70000E948D060895A5E0B0E0E1ECF6E00C9449
:100D80003C202596E2E00C945820A6E0B0E0EBEC85
:100D9000F6E00C943C202696E2E00C94582008954E
:100DA0000E94CF0608950E94D0069093AF018093D1
:100DB000AE010E947606089508950E94D306089514
:100DC0002091AE013091AF01822B932B0E94D3066C
:100DD00008952091AE013091AF01822393230E94A8
:100DE000D30608952091AE013091AF018227932759
:100DF0000E94D30608950E94CF0608950E94FB0624
:100E000008950E94FE069093AD018093AC010E946C
:100E10007606089590E080E00E940107089521E0A1
:100E200030E0A90102C0440F551F8A95E2F7CA01BC
:100E30000E940107089521E030E002C0220F331F15
:100E40008A95E2F78091AC019091AD01822B932BB2
:100E50000E940107089521E030E002C0220F331FF5
:100E60008A95E2F7209530958091AC019091AD0183
:100E7000822393230E940107089521E030E002C0FD
:100E8000220F331F8A95E2F78091AC019091AD015A
:100E9000822793270E94010708952091AC01309189
:100EA000AD01822B932B0E94010708952091AC0184
:100EB0003091AD01822393230E9401070895209170
:100EC000AC013091AD01822793270E94010708955C
:100ED0000895262F277091E001C0990F2A95EAF70F
:100EE00023E0769567952A95E1F7660F771F660FE1
:100EF000771FFA01E60FF71F50E040E0682F70E01F
:100F00008191DF0111979B01042E02C03695279530
:100F10000A94E2F7217021952827292328272C936A
:100F20004F5F5F4F4430510559F70895A82FA770C0
:100F300023E0969587952A95E1F7880F991F880FEA
:100F4000991FFB01E80FF91F50E040E080E021917C
:100F500030E00A2E02C0369527950A94E2F72170F8
:100F60003327042E01C0220F0A94EAF7822B4F5F29
:100F70005F4F4430510559F70895262F933070F490
:100F8000893060F4682F70E089E0989F600D711DD2
:100F900011244CE951E0822F0E9469070895292FFE
:100FA000933068F4893058F490E06CE971E039E0EE
:100FB000239F800D911D11240E949607089580E0C3
:100FC0000895B0E0A0E0E7EEF7E00C9435207C0156
:100FD0000091AC011091AD018091AE019091AF01F3
:100FE000082B192BCFE0D0E0CC24C394D12CBC2EFD
:100FF000C6010C2E02C0880F991F0A94E2F78023C5
:101000009123892B49F4219790F7B12C8B2DCDB7E3
:10101000DEB7E9E00C945120B7018C2F0E94890EB5
:10102000019789F3F3CFCF93DF93EC010E94E1079F
:10103000BE010E94890EDF91CF9108951F93CF9337
:10104000DF93EB0190919B01992339F0CB010E9432
:101050001308DF91CF911F910895882369F0CB0188
:101060000E94E107182F682FCE010E94BD07BE0124
:10107000812F0E94890EEDCFCB010E94CF07182F40
:10108000F6CF1F93CF93DF93C091B00116E080910C
:10109000B1018C1304C0DF91CF911F910895D0E06E
:1010A0001C9FF0011D9FF00D1124EE54FE4F408156
:1010B000518162817381848195810E94C506219648
:1010C000C770E5CF4091E2015091E3016091E401E6
:1010D0007091E5018091E6019091E7010E94C506BB
:1010E00008951F93CF93DF938091E701807F09F0EC
:1010F00049C08091E401882309F444C08091B00183
:10110000C091B1016091E2017091E301A091E5010C
:10111000B091E601D62FD72316E0C81799F190E0D9
:10112000109711F0DF3F19F401968770F6CF189FE2
:101130009001199F300D1124F901EE54FE4F4181A9
:101140004713F2CF40814613EFCF42814111ECCFDC
:10115000438154814A1B5B0B483C510528F7809121
:10116000E7018F7080618093E701F901E954FE4F38
:1011700080818F708061808382EE91E00E944C06B6
:101180000E944108DF91CF911F910895A1E1B0E045
:10119000ECECF8E00C9434208C0185E0F801DE01E1
:1011A0001D9601900D928A95E1F7F801E28082EE9A
:1011B000C82E81E0D82E6091E5017091E60161159D
:1011C000710509F44EC19091E2012091E301892F4C
:1011D00082238F3F09F445C140815181A380B480AF
:1011E000F090E401F501E61BF70BFF2009F4EAC0DB
:1011F0008091E701382F307FE83CF10508F0A3C06B
:1012000031116DC0FE2C251316C0941314C0E110CB
:1012100012C08F7080618093E7010E946208C6014E
:101220000E944C068091E701F80185838F2D61961D
:10123000EAE00C945020A114B10429F0842F8523F6
:101240008F3F09F027C180E0F82FF170DF2E80FF7B
:101250003CC08091B0012091B10136E0821315C0ED
:101260004D875E878D859E850E941308292F2295C4
:101270002F702230F0F0243018F59F70F1F0F80153
:101280009581907FD1F4D12C1EC090E0389FF00161
:10129000399FF00D1124EE54FE4F6181651306C095
:1012A0006081641303C06281E6120FC001968770EB
:1012B000D5CF9F7011F0882331F3805E883018F30A
:1012C000C8010E944C06FD2CB1CFEE2009F4AECF30
:1012D0008091E70181608093E701F12CA7CF25136E
:1012E00006C0941304C0F801EE2009F487C0C801B9
:1012F0000E94A806882319F1EE2009F18091E701E8
:10130000803270F02091E2013091E30138872F8321
:101310001986BB86AA868C87CE0107960E944C064A
:1013200086E0F801A2EEB1E001900D928A95E1F716
:101330000E9471080E946208FF24F39477CFC801CD
:101340000E944C06F9CF311113C07A2DB98AA88AB0
:101350006E2D89890E94BB0682EE91E00E944C06A8
:1013600086E0F60111928A95E9F70E946208B5CFEE
:1013700025130FC094130DC0E1100BC0F801858335
:10138000C8010E944C0686E0F60111928A95E9F7A1
:101390004DCFC8010E94A806882389F2EE2079F279
:1013A0008091E701803208F4BBCF2091E2013091B7
:1013B000E3013A8329831B82BD82AC828E83CE01F6
:1013C0000196ACCFE83CF10508F03EC0FE2CEE20C3
:1013D00009F4B5CF25132AC0941328C08091E701E2
:1013E00080FD1BC0982F907FC1F0F8018583903F4E
:1013F00031F0982F907F905F8F70892B8583C80183
:101400000E944C0686E0F801A2EEB1E001900D9238
:101410008A95E1F70E94620809CF86E0F801A2EE02
:10142000B1E001900D928A95E1F700CFC8010E94CA
:10143000A806811175CF8091E70181608093E70153
:10144000C8010E944C06F2CE7A2DB98AA88A6E2D68
:1014500089890E94BB0686E0F60111928A95E9F718
:10146000D9CFEE2009F46BCFC8010E94A806F82E50
:10147000882309F464CF86E0F801A2EEB1E0019080
:101480000D928A95E1F782EE91E00E9438030E9466
:101490007108C0CF81E08E25D7CEACE0B0E0E3E5A7
:1014A000FAE00C943B204F83588769877A878B87B3
:1014B0009C87CE0107960E94C608882369F08A851A
:1014C0009B85892B39F04F815885842F85238F3F49
:1014D00009F06BC016E05FC086E0FE013796DE01C2
:1014E000119601900D928A95E1F78A859B85892B4B
:1014F00089F38F81988589238F3F61F32091B10112
:1015000030E0C9010196877099274091B0014817D2
:10151000190671F40E9488061092B1011092B00170
:1015200086E0E2EEF1E0DF011D928A95E9F7D2CF85
:1015300096E0929FD001939FB00D1124AE54BE4F00
:10154000FE01319601900D929A95E1F78093B101D9
:101550000E944108BFCF819FC00111248E549E4F2D
:101560000E94C6088823E9F0E091B0011E9FF001B7
:101570001124EE54FE4F4081518162817381848138
:1015800095810E94C5068091B00190E00196877018
:1015900099278093B0018091B0019091B101891396
:1015A000DACF2C96E3E00C94572069857A858B85F9
:1015B0009C850E94C5068ECF682F80910001909176
:1015C00001010E9400180895682F809100019091F8
:1015D00001010E940E18089580910001909101016F
:1015E0000E941C180895809108028595859585951F
:1015F000089580910802877008959091080297706D
:1016000081E009F480E0089580912B020895909183
:101610002B02892B80932B020895809590912B02A9
:10162000982390932B02089510922B020895909185
:101630002A02892B80932A020895809590912A028C
:10164000982390932A02089510922A020895809177
:101650000902089508950E942A0B089590917D0231
:1016600092FF08C090910902981721F08093090217
:101670000E942B0B089580910902882329F0109273
:10168000090280E00E942B0B0895CF93DF93E09135
:101690000001F091010180912B028083E091000113
:1016A000F0910101808190912A02892B8083909191
:1016B0000902992381F0E0910001F09101018081FC
:1016C000892B808380910001909101010E946C1709
:1016D00081110E943B0BC0910001D091010140E2B9
:1016E00050E068EE71E0CE010E946320892B59F032
:1016F00080E2FE01A8EEB1E001900D928A95E1F73B
:10170000CE010E942617DF91CF91089508950E947F
:10171000860B089590917D0292FF11C098E0899FF9
:1017200090011124622B609308020E941B07809194
:1017300008028595859585950E94870B08950E94DE
:101740001B0708951092080280E00E94870B0895FD
:10175000909108028095892380930802282F277092
:1017600091F4282F082E000C330B9217130659F012
:1017700090917D0292FF07C08595859585950E9481
:101780002B070E94A20B089590917D0292FB2227C5
:1017900020F9281769F080FB92F990937D028091DF
:1017A0007C0290917D020E940E0C82E00E94A80BA8
:1017B000089580917D0282FB882780F991E0892736
:1017C0000E94C40B089581E00E94C40B089580E03C
:1017D0000E94C40B089590E080E00E94872021E0E1
:1017E000883E9E4F09F020E0822F089582E090E02D
:1017F0000E947920089583E090E00E947920089566
:10180000CF9384E090E00E947920C82F82E290E09C
:101810000E947920982F8C2FCF910895CF93C92FB4
:10182000682F84E090E00E948D206C2F82E290E08F
:101830000E948D20CF910895AB01BC018FE090E014
:101840000E949F200895AB01BC0183E190E00E94BB
:101850009F20089560E070E0CB010E94230C089562
:1018600060E070E0CB010E941C0C0E942A0C0895DD
:1018700068EE7EEF90E080E00E94AB2060E082E0C6
:1018800090E00E948D2060E083E090E00E948D2037
:101890001092AF011092AE0160E084E090E00E94EF
:1018A0008D2064E082E290E00E948D2060E085E07F
:1018B00090E00E948D2060E086E090E00E948D2004
:1018C0006FEF87E090E00E948D2040E050E0BA0189
:1018D00088E090E00E949F2060E08DE090E00E9410
:1018E0008D2040E050E0BA0188E190E00E949F2006
:1018F00060E087E190E00E948D2040E050E0BA0176
:101900008CE190E00E949F2070E060E080E290E037
:101910000E94AB2040E050E0BA0188E190E00E94D4
:101920009F200E94300C08950E94380C0895682F63
:101930008EE090E00E948D2008950E94E018609350
:101940003C0270933D0280933E0290933F0260936D
:1019500038027093390280933A0290933B020895C3
:101960000E94E01860933C0270933D0280933E0217
:1019700090933F0260933402709335028093360255
:10198000909337020895089508950E94C40C089515
:1019900008950E94C80C089583E79FE00E940F17E6
:1019A0000E94C30C0E94C50C089581E008950E9416
:1019B000D50C0895089508950E94DA0C0E94DB0C5E
:1019C00008950E94760F0E94D70208950E94CB18B6
:1019D0000E9446100E94E10C0E945E130E94B11505
:1019E0000E94C90C0895AAE0B0E0E9EFFCE00C9475
:1019F00031200E945C1000912E0210912F0280E095
:101A00000E949B0F08171907E9F500913002109109
:101A1000310281E00E949B0F8017910799F5009198
:101A200032021091330282E00E949B0F08171907BF
:101A300049F50E94D4188C0180912C0290912D02BE
:101A400008171907A1F08FEF89838A831B820E94F0
:101A5000D4188160782F9D838C8349815A816B8152
:101A60008D810E94030310932D0200932C020E948B
:101A7000D01581110E94B00C0E94EA022A96EDE076
:101A80000C944D208091400281FD0E94A40F0E9481
:101A9000D70C782E2EE2822E22E0922E10E0812F9B
:101AA0000E949B0F7C01F401A190B1904F018A1517
:101AB0009B0561F1A826BF2400E0CC24C394D12C5F
:101AC000C5018C219D21892BC1F07720B1F00E83B7
:101AD0001F8321E0C7018C219D21892B09F420E07F
:101AE00028870E94D4188160782F9A8789874E8131
:101AF0005F8168858A850E9403030F5FCC0CDD1C23
:101B00000930F1F6F4013297F182E0821F5F133061
:101B100031F60E949D0CABCFCF93DF930E948E0EC7
:101B2000EC01811522E59207E8F5811531E593076F
:101B300008F0A3C0883E910510F5803E910570F530
:101B4000883A910570F4853A910508F078C08130A3
:101B5000910521F1009711F1049700F5D0E0C0E064
:101B60001DC08F3B9105D0F7C85AD0E0CC0FDD1FC8
:101B7000CB5BDE4F0990D881C02DD4640FC0811596
:101B800040E5940708F066C0C11580E4D80708F066
:101B90005EC0CE019A9581159F4100F7CE01DF917D
:101BA000CF910895811536E5930718F5811545E520
:101BB000940708F07BC0C11584E5D80708F071C010
:101BC0009E01237033279C2F96959695C115D3457A
:101BD00008F458C0C1E0D0E002C0CC0FDD1F2A9548
:101BE000E2F730E2939FC0011124C82BD92BDA68A9
:101BF000D5CFC1158AE5D80778F4C11529E5D207F4
:101C000008F05EC0C11538E5D30708F4A7CFDC2F74
:101C1000CC27C06FD06AC2CFCE01905681159042BA
:101C200008F09CCF8D2F8F710E94300F90E0982F7D
:101C3000882788279F719C012C2BE9013FC0C55A3A
:101C4000D0E0CD58DE4FC881D0E0D064A7CFDF70A0
:101C5000D06AA4CF8370992721E030E002C0220F20
:101C6000331F8A95E2F7C695C69580E2C89FE001CA
:101C70001124C22BD32BDD6891CFD82FCC27C16F75
:101C8000D06A8CCFC1E0D0E002C0CC0FDD1F2A9516
:101C9000E2F720E2929FC0011124C82BD92BDC6807
:101CA0007DCFDC2FCC27C46FD06A78CF0E94300F55
:101CB000C82FD0E0DC2FCC27CC27DF71D0626ECFCD
:101CC0008C2F8F700E94300F34E0D695C7953A95CF
:101CD000E1F7CF709C2FEC01D06960CF972F733064
:101CE000A8F4693098F470E029E0929F600D711DAE
:101CF0001124FB019BE1899FE00DF11D1124EE0FE2
:101D0000FF1FE455FF4F85919491089580E090E086
:101D100008950E946E0E0E948C0D089582389105E0
:101D2000B9F1B0F48133910509F47DC048F48932EA
:101D3000910509F46DC08A32910509F47BC00895BC
:101D40008533910509F45FC08933910509F1089540
:101D5000833E9105D9F138F4803E910529F1823E08
:101D6000910579F10895863E9105D9F1873E910557
:101D700009F43EC0843E910541F520917D0221FF8A
:101D800024C080917C0284FD19C087EE90E0089504
:101D900020917C02237009F05AC020917D0223FF1C
:101DA00014C089E290E0089520917C0220FD38C0A3
:101DB00030917D0230FF09C024FF43C090E080E0F5
:101DC000089520917C0222FDF7CF089520917C0296
:101DD00022FD3AC030917D0230FD39C024FFF5CF9D
:101DE000EDCF20917C0223FFF0CF24FDE7CFCDCFB4
:101DF00020917C0223FD2EC030917D0231FFEECF79
:101E000084EE90E0089520917C0225FFDECFC9CFBB
:101E100020917C0225FD21C020917D0223FFD5CF9A
:101E200089E390E0D2CF20917C0226FFCECF8AE2D8
:101E300090E0089520917C0226FFC7CF81E390E0D7
:101E4000089583EE90E0089582EE90E0089580EE8C
:101E500090E0089586EE90E0089585E390E008957F
:101E600090917C0292FF06C0282F28712830F9F447
:101E7000877F846093FF06C0282F28712831F1F4F2
:101E8000877E846120917D0220FF06C0382F387143
:101E90003830D9F4877F816021FF06C0282F287150
:101EA0002831D1F4877E816194FD877E0895282FA3
:101EB00024712430F9F68B7F8860DCCF282F2471C1
:101EC000243101F78B7E8861DDCF382F31713130BD
:101ED00019F78E7F8860E0CF282F2171213121F7FB
:101EE0008E7E8861E1CF80E0089508950E94EB0B1B
:101EF000811102C00E94940C0E94F60B8093400254
:101F00000E94000C90937D0280937C020E94750FCA
:101F10000E94FB0B90E00E94DD068091AC01909145
:101F2000AD010E94FE0608950E94FB0108950895E8
:101F30000E94970F0895E82FF0E0EE0FFF1FEC5777
:101F4000FD4F808191810895089580EA8A95F1F787
:101F5000089500C008950E94A50F0895F894E82FF1
:101F6000E295EF70F0E031A1282F2F7081E090E032
:101F700001C0880F2A95EAF7982F9095932391A393
:101F800092A1892B82A378940895CF93DF93C6E71B
:101F9000D1E089918F3F11F00E94AE0F81E0CF37E1
:101FA000D807B9F781E90E94AE0F87E90E94AE0F0A
:101FB00085E30E94AE0FDF91CF910895B0E0A0E0DD
:101FC000E4EEFFE00C943420D82EE92EF62E8A01A0
:101FD000C62FD0E0CE018A589E4F5C01EC012881CB
:101FE0002F3F09F449C0F894E22FE295EF70F0E03A
:101FF00031A12F7081E090E001C0880F2A95EAF7A7
:10200000932F982B91A392A18095892382A37894F2
:102010000E94A90FAFE7B1E0ED2DFE2D62E871E05F
:10202000E12C6801C094D0944D91808191814F3F03
:1020300041F1242F22952F7030E0E90128A130E0F2
:102040004F7002C0359527954A95E2F720FD19C0DB
:10205000802B912B91838083EE24E39432966A1730
:102060007B0711F7F50180818F3F11F00E94AE0FC1
:102070006E2D8F2D0E94AB0FCDB7DEB7EAE00C942A
:1020800050208C219D2191838083E8CF0E94C50F31
:1020900086E0E4E8F2E0DF01982F1D929A95E9F7D7
:1020A000EEE7F2E0DF011D928A95E9F783E00E94F6
:1020B000AD100E944B020895CF92DF92FF920F93D2
:1020C0001F93CF93DF9300D000D000D0CDB7DEB701
:1020D0008E010F5F1F4F86E0F80111928A95E9F794
:1020E000F12CCC24C394D12CA6016F2DC8010E94E1
:1020F000DE0FF394CC0CDD1CF9E0FF12F5CF46E0C7
:1021000050E0B8018EE792E00E94632021E0009742
:1021100009F420E0892B41F086E0F801AEE7B2E057
:1021200001900D928A95E1F743E064E872E08EE752
:1021300092E00E94AE10182F0E944E02812F269628
:102140000FB6F894DEBF0FBECDBFDF91CF911F91C8
:102150000F91FF90DF90CF9008950895CF92DF9276
:10216000EF92FF921F93CF93DF936C017B01C42FFB
:10217000222349F081E0809343020E94D418909377
:102180004202809341021091430211110AC010E0F3
:10219000812FDF91CF911F91FF90EF90DF90CF9033
:1021A000089580914102909142020E94EC18059797
:1021B00070F3D0E0CC0FDD1FAE01B601C7010E9465
:1021C0006320892B41F0AE01B601C7010E94702047
:1021D00010924302DDCF10E0FBCF0E94D91A0E947B
:1021E000E60C0E94E61A08950E94EB1A0E94F30C76
:1021F0000E94051B08950E946D180E94BF1A0E943C
:10220000CC0C0E94ED100E94F4100E94DC0CFBCF5D
:10221000EF92FF920F931F93CF93DF93EB01E82F81
:10222000D1110EC0442321F0F0E0E85EFE4FE491AE
:102230006E2F7E2F8E2FCDB7DEB7E6E00C945420A4
:102240000D2F10E0282F30E0442329F0285E3E4F68
:10225000F901249130E0F6E0CF9FC0011124EFEFA7
:10226000F0E0BF010E94FE1FAB018C2F90E0880FB1
:10227000991FA5E5A49FB001A59F700D1124861B91
:10228000970B982F990F980FBF01601B710B629FDE
:10229000D001639FB00D729FB00D11248B2F9D9FB5
:1022A000B0011124672F7727EF01C61BD70BBE01A2
:1022B000629FE001639FD00D729FD00D11247F01BA
:1022C000E91AF108E09EB001E19E700DF09E700DDC
:1022D0001124672F7727E61BF70BE29F8001E39F0E
:1022E000100DF29F100D1124E12F722F4230510575
:1022F00099F048F44115510569F04130510581F0DC
:10230000EB2F8D2F07C04430510569F080F0463027
:102310005105B1F76E2F8FCFE22F7B2F812FFACF90
:10232000E22F7D2FF7CFEB2F822F712FF3CF7B2F53
:10233000822FED2FEFCF41E00E94081108950E94F7
:102340009B110895CF93DF93762FE901682F842F97
:102350000E949F11798368838A83DF91CF910895CA
:1023600080918A02982F9E7F39F480918A02817031
:10237000826080938A0208958430B8F7089588E0D7
:1023800090E00E9481200895CF92DF92EF92FF9219
:102390006B017C010E94B011B701A60188E090E0BA
:1023A0000E949F20FF90EF90DF90CF900895EAE881
:1023B000F2E083E0808311828FEF82838383148233
:1023C00060817181828193810E94C41108959091EE
:1023D0008E02933018F49F5F90938E02882351F001
:1023E00060918A0270918B0280918C0290918D0293
:1023F0000E94C411089581E00E94E7110895909110
:102400008E02992319F0915090938E02882351F0F7
:1024100060918A0270918B0280918C0290918D0262
:102420000E94C411089581E00E94FF11089570E098
:102430000E940E1408956091030180918A0280FF2A
:102440000BC08091020123E0829FC00111248157BB
:102450009D4F0E94171208958091040190910501EB
:1024600023E0829FF0011124E157FD4F891748F7BF
:102470001182108212828F5F3396F8CFEAE8F2E081
:1024800080818E7F808360817181828193810E94AF
:10249000C4112FEF80E792E0215080409040E1F797
:1024A00000C000000E941B12089590918A0290FFC4
:1024B0000EC0909104012091050133E0939FF0013B
:1024C0001124E157FD4F921718F00E941B12089536
:1024D0008183608342839F5F3396F5CFA3E0B0E0B2
:1024E000E4E7F2E10C943820F82E062F142FE22EA8
:1024F00080918A0280FF28C0E82FE695F0E0EE5731
:10250000FE4F9081909345028E7F823059F49E0158
:102510002F5F3F4F8F2D0E94A2114B8169818A81CD
:102520000E945512F0928B0200938C0210938D0240
:10253000EE2051F060918A0270918B0280918C02A2
:1025400090918D020E94C4112396E6E00C945420D1
:10255000EAE8F2E09181282F4381628188E0890FC7
:102560000E946E12089581E00E94A8120895EAE880
:10257000F2E09181282F4381628188EF890F0E94C8
:102580006E12089581E00E94B7120895EAE8F2E021
:10259000628128E0620F08F46FEF282F4381818168
:1025A0000E946E12089581E00E94C6120895EAE822
:1025B000F2E0628128E0621B08F460E0282F43818A
:1025C00081810E946E12089581E00E94D7120895C1
:1025D000EAE8F2E0438128E0420F08F44FEF282FA9
:1025E000628181810E946E12089581E00E94E8124A
:1025F0000895EAE8F2E0438128E0421B08F440E055
:10260000282F628181810E946E12089581E00E94CC
:10261000F912089520E00E946E12089580918A02B6
:1026200080FF18C08170826080938A02662351F017
:1026300060918A0270918B0280918C0290918D0240
:102640000E94C41140918D0260918C0280918B0296
:102650000E940A130895682F81E00E940E130895C6
:1026600081E00E942B130895682F90918A0296951D
:102670008FEF890F09F481E00E940E13089581E025
:102680000E943413089561E00E940E130895EAE851
:10269000F2E080818160808386950E9443130895D3
:1026A00080918A0280FF03C00E943E1208950E941A
:1026B0004713089560E00E940E130895809144022C
:1026C00081112CC00E94EB0B811104C00E94940C5C
:1026D0000E94D7110E94BF1160938A0270938B02EF
:1026E00080938C0290938D026E7F61F40E94D711CB
:1026F0000E94BF1160938A0270938B0280938C02B8
:1027000090938D020E94B01180918A0280FF03C0D5
:1027100086950E945A1381E0809344020895FA013D
:10272000811101C0FB01099508951F93CF93DF9399
:10273000EC01FB01128111114FC00E94040B827247
:10274000CA3CFCE5DF0709F460C030F5C63CECE5A7
:10275000DE0709F455C060F4C43C9CE5D90709F4D0
:1027600043C008F048C0C33CDC45D9F111E034C097
:1027700044EE52E163ED72E1C83C9CE5D907C1F13A
:1027800043EB52E162EC72E1C93CDC4588F143ED78
:1027900052E164EE72E12CC0CE3CFCE5DF07D1F1E2
:1027A000A0F443E152E16BEF71E1CC3CECE5DE07D4
:1027B000F9F045EF52E166E073E1CD3CDC45C0F055
:1027C0004BEF51E163E172E113C0C73D8CE5D807DF
:1027D00018F0CE35DD4551F6812FDF91CF911F9155
:1027E00008950E945013F8CF4FE353E160E373E183
:1027F0000E948F13F1CF40E353E16FE373E1F8CF11
:1028000042EC52E163EB72E1F3CF46E053E165EF56
:1028100072E1EECF81E00E944313DECF859A41B38F
:102820004F7D51B35062EFB7F8949B01220F331FD5
:10283000260F371F280F391F2817390741F4EFBF1C
:102840008FE594E00197F1F700C000000895DC01E6
:102850006D91CD0178E051BB000000C067FF41BB26
:10286000660F000000C000C000C041BB00C07A95E8
:1028700091F7E2CFCF93DF93EC01FB0182818823B4
:1028800009F464C1C430FDE5DF07E0F5CB3F9CE50A
:10289000D90730F49E0122503C4524313105D8F54A
:1028A0000E94000C90937D0280937C02C231ECE583
:1028B000DE0709F41FC108F06EC0C9308CE5D807E7
:1028C00009F4F2C008F03FC0C530ECE5DE0709F4BA
:1028D000DBC058F5C3308CE5D80709F4CDC008F04B
:1028E000CFC080917C028160C230DC4509F4AEC06B
:1028F00080917C0290917D020E940E0C0E948806BD
:1029000080E009C0C63AEDE5DE0751F238F4C23680
:102910009DE5D90729F2DF91CF9108959E012E5AA6
:102920003D4523303105B8F7BBCF80917C028062F2
:10293000C730FCE5DF0709F489C008F4B1C0809115
:102940007C02806483C0CD309CE5D90709F4BAC00D
:1029500070F480917C028E7FCB30FCE5DF0709F4B8
:1029600075C008F4A7C080917C028D7F6FC0CF3006
:102970009CE5D90709F4B6C008F4A8C0C031FCE54D
:10298000DF0709F4B3C0C131DC4509F0B1CF809154
:102990007C028F7B5BC0C1159DE5D90709F4B4C0EB
:1029A00098F5CB3FFCE5DF0709F472C0B8F4C431F9
:1029B0009CE5D90709F4B6C008F4A2C0C531DC45CE
:1029C00009F096CF80917C0282FB992790F921E053
:1029D000922790FB82F990FB83F938C0CD3F8CE5BC
:1029E000D80709F477C008F457C0CE3FECE5DE07FE
:1029F00009F474C080917D028360CF3FDC4509F00B
:102A000077CF80937D0274CFC2368DE5D80709F465
:102A100096C068F4C230EDE5DE0709F48CC008F416
:102A200077C0C330DD4509F063CF80E085C0CE3A82
:102A30009DE5D907E9F068F490917C02892F8E7F9B
:102A400090FF8160C63ADD4509F052CF80937C0249
:102A50004FCFCF3A8DE5D80789F1C03BDD4509F06E
:102A600047CF90917D02892F877F93FF8860C9CFE0
:102A700080917D028860C5CF80917C028260E6CF24
:102A800080917C028460E2CF80917C028860DECFFE
:102A900080917D028160B5CF80917D028260B1CF4F
:102AA00080917C028061D2CF0E94880680917C0256
:102AB0008068CCCF80917C028C60C8CF80917D02F1
:102AC000877F9FCF80917C028B7FC0CF80917C02DB
:102AD000877FBCCF80917D028E7F93CF80917D02D6
:102AE0008D7F8FCF80917C028F7EB0CF80917C02D2
:102AF0008F7DACCF0E94880680917C028F77A6CF15
:102B000080917C02837FA2CF80917D028C7F79CFE0
:102B100080917D02982F909591708E7F892B90FBEC
:102B200081F96FCF0E94880690917C02892F97FBD4
:102B300087F980588BCF81E00E94970CD9CE909175
:102B40007C02892F8F7E94FF806180CF81E0E3CE6D
:102B50008FE891E00197F1F700C00000089581E04F
:102B6000089581E08093480252985A9A53985B9A4C
:102B70000E94A815209148024AE452E0FA018E2FE3
:102B8000841B821708F0089589B182FB882780F999
:102B90004B9904C090E0892B8193F1CF92E0FBCF59
:102BA000B0E0A0E0E6EDF5E10C943620F12CE12C4C
:102BB00084E0C82ED12C80914802F81630F08E2D7A
:102BC000CDB7DEB7E8E00C9452200F2D10E0E9B14C
:102BD000E2FBEE27E0F94B9940C080E08E2BD80154
:102BE000A65BBD4FEC919E2F93709817A1F1EE0F4D
:102BF000EE0FE82BEC93EF70F0E0EC57FE4FE8019E
:102C0000C75BDD4F80819881890F888320E0843005
:102C10005CF0F801E95BFD4F80818F5F808360E0AD
:102C20008F2D0E94DE0121E088818D3F5CF4F80148
:102C3000E95BFD4F80818150808361E08F2D0E9490
:102C4000DE0121E08881082E000C990BB6010E945C
:102C500012208883E22AF394AECF82E0BFCFCF93D5
:102C6000DF93EB0186319C4511F50E94040B9A819C
:102C7000992399F08A7A91E009F490E090934B02BD
:102C8000811109C089E20E94DC0A0E94450B80E0A4
:102C9000DF91CF91089585E3F6CF80914B028111AA
:102CA00004C089E20E94E40AF0CF85E3FBCF81E013
:102CB000EFCF0F931F93CF93DF93C42FD22FFC013D
:102CC00082818823C9F040934E020E94D4189093C9
:102CD0004D0280934C0280E28C0F883040F4C77024
:102CE00081E001C0880FCA95EAF70E943904DF919C
:102CF000CF911F910F91089510914E02141332C07D
:102D000080914C0290914D020E94EC18883C9105F4
:102D100048F5C0E2CD0F1D17B9F080E2810F883071
:102D200040F4177081E001C0880F1A95EAF70E94FD
:102D30004004C83048F481E09D2F977001C0880F8F
:102D40009A95EAF70E943904802F0E943004C83017
:102D500070F6D77081E001C0880FDA95EAF70E941B
:102D60004004C5CF80E28C0F883008F6C77081E040
:102D700001C0880FCA95EAF7F2CF0F939C01CB01EF
:102D8000243F4CE5340759F1A8F4293DFCE53F0701
:102D900001F12A3D4CE53407D1F1283D3C4591F441
:102DA00006E221EE41EE68ED7CE50E94591680E0D6
:102DB0000F910895263FFCE53F07E9F0B0F0273F6B
:102DC0003C45F9F0FC018281882339F110924E02D2
:102DD000EFCF07E225EE45EE69ED7CE5E6CF06E2B2
:102DE00021EE40EE64EF7CE5E0CF07E225EE44EE15
:102DF00065EF7CE5DACF06E221EE42EE66EF7CE598
:102E0000D4CF07E225EE46EE67EF7CE5CECF08E2B1
:102E100021E045EE6AED7CE5C8CF81E0C9CF909313
:102E200095018093940108959093540280935302E6
:102E30000895E0915302F0915402309729F00190E7
:102E4000F081E02D0995089580E00895E091530206
:102E5000F0915402309799F020911301222359F0F8
:102E600020917C0227FF07C0DC012C9111962C9346
:102E7000119726E02C930280F381E02D09950895A7
:102E800020915102309152022817390771F0909326
:102E9000520280935102E0915302F0915402309714
:102EA00021F00680F781E02D0995089520914F02C9
:102EB000309150022817390771F090935002809397
:102EC0004F02E0915302F0915402309721F00084B8
:102ED000F185E02D09950895FC013296809113014A
:102EE000882321F080917C029EE187FF96E080E0BC
:102EF000915008F4089521912223D1F38F5FF8CFE8
:102F0000662301F1209113012223F1F020917C022C
:102F100027FF1AC0462F4695469546954E3190F4A8
:102F2000677021E030E002C0220F331F6A95E2F79C
:102F3000840F911DFC01828190E02823392381E0D8
:102F4000232B69F480E00895FC01329608962191C4
:102F5000261721F0E817F907D1F7F4CF81E008959B
:102F60009C01FC0132969FEF80E04191461751F0A1
:102F70009F3F19F4411101C0982F8F5F8630A9F748
:102F80009F3F09F40895290F311D97FD3A95F901E6
:102F900062830895FC01329608962191261303C09E
:102FA000DF0111971C92E817F907B9F70895E62F8A
:102FB000E695E695E695EE3168F4E80FF92FF11DF8
:102FC000677021E030E001C0220F6A95EAF7828144
:102FD000822B82830895E62FE695E695E695EE31FD
:102FE00070F4E80FF92FF11D677021E030E001C0A7
:102FF000220F6A95EAF7209582812823228308957B
:1030000020911301222339F020917C0227FF03C075
:103010000E94D71708950E94B017089520911301B8
:10302000222339F020917C0227FF03C00E94EB1776
:1030300008950E94CA170895FC01329680911301E9
:10304000882351F080917C0287FF06C08EE1DF016A
:103050001D928A95E9F7089586E0F9CF08950E94B8
:103060002E180895811106C081E0809355020E94B8
:103070002F18089582E0F9CF83E0809355020E94D3
:103080002F1808950E943218089581E08093550208
:103090000E942F1808950E944518089508950895D4
:1030A0000E944F180895089508950E944E1808959B
:1030B000CF930E9453180E945C100E945418C0E0E5
:1030C0008C2F0E949B0F892B31F4CF5FC330C1F747
:1030D00080E0CF91089581E0FCCF85B7806885BFFF
:1030E00085B7806885BF08951F921FB61F9211246F
:1030F0008F939F93AF93BF9380915602811113C01A
:103100008091CB029091CC02A091CD02B091CE02E1
:103110004196A11DB11D8093CB029093CC02A09348
:10312000CD02B093CE02BF91AF919F918F911F902E
:103130001FBE1F9018958091D302843031F10E94F8
:10314000C4021092560288E190E020E40FB6F89491
:10315000A895809360000FBE2093600083B7817FA5
:10316000846083BF83B7816083BF7894889583B779
:103170008E7F83BF0FB6F894A89580916000886118
:1031800080936000109260000FBE08950E94880630
:103190000E94C902089582E084BD93E095BD9AEF34
:1031A00097BD80936E0008952FB7F8948091CB025D
:1031B0009091CC02A091CD02B091CE022FBF089584
:1031C0002FB7F8946091CB027091CC028091CD0220
:1031D0009091CE022FBF08959C014FB7F894809133
:1031E000CB029091CC02A091CD02B091CE024FBF04
:1031F000821B930B089578941F921FB61F9211247F
:103200008F939F93AF93BF938091CB029091CC0209
:10321000A091CD02B091CE020196A11DB11D809367
:10322000CB029093CC02A093CD02B093CE02BF917B
:10323000AF919F918F911F901FBE1F90189581E0B5
:103240008093E00080E28093D8001092C9008FE163
:103250009EE40197F1F700C0000087E090EBDC01ED
:103260008093DC029093DD02A093DE02B093DF0234
:1032700088E19CE00FB6F894A895809360000FBE9B
:1032800090936000FFCF88E19CE00FB6F894A8957A
:10329000809360000FBE90936000FFCF80917A0210
:1032A00008950895CF93DF93EC0180911301882353
:1032B000B1F180917C0287FF32C060E282E08093AE
:1032C000E9008FEF9091E800815095FD06C095EDE3
:1032D0009A95F1F700008111F5CF8091E80085FF04
:1032E0001BC08091130170E050E040E0811104C0E8
:1032F00050E040E068E070E0CE010E94771B8091D2
:10330000E8008E778093E80080E2FE01AAE5B2E053
:1033100001900D928A95E1F7DF91CF91089568E0D1
:1033200081E0CDCF80935702709359026093580289
:103330008091D302843001F582E08093E9008FEF21
:103340009091E800815095FD06C095ED9A95F1F7B2
:1033500000008111F5CF8091E80085FF0DC050E09D
:1033600040E063E070E087E592E00E94771B809187
:10337000E8008E778093E8000895BC0184E00E9405
:1033800092190895BC0183E00E949219089508954E
:103390008091D202811109C00E94071D0E94641D04
:1033A0008091E20084608093E20008951092D2023E
:1033B00008950E94451808956091CF0281E061113F
:1033C00001C080E00E943C1808959091D30281E0F2
:1033D000943009F080E06091CF020E944218089575
:1033E00042E061EC81E00E94831C42E261EC82E0F9
:1033F0000E94831C9091D30281E0943009F080E018
:103400006091CF020E94321808958091D5028330D6
:1034100009F461C030F48130D1F1823009F49EC0EA
:1034200008958A3009F48AC08B3009F46FC089305E
:1034300009F050C08091D402813209F04BC08091D4
:10344000D8029091D902029708F044C08091E80018
:10345000877F8093E8008091E80082FF37C09091D9
:10346000F3008091F200029731F48091F1008130F5
:1034700011F0863021F48091F10080937A028091DE
:10348000E8008B778093E8000E94B71C23C08091EE
:10349000D402813AF9F48091E800877F8093E800B4
:1034A0008091D8029091D902892B61F460E28AE57B
:1034B00092E070E00E94C61B8091E8008B778093B9
:1034C000E800089560E090E080E0F3CF8091D302BF
:1034D0008111C1CF08958091D402813AD9F78091AA
:1034E000D8029091D902892BA9F78091E800877FB3
:1034F0008093E8008091E80080FFFCCF8091130169
:103500008093F1008091E8008E77BCCF8091D40247
:10351000813201F78091D8029091D902892BD1F69E
:103520008091E800877F8093E8000E94B71C80911B
:10353000D602809313010E94880608958091D402D8
:10354000813241F68091E800877F8093E8000E94F5
:10355000B71C8091D70280937B0208958091D4029A
:10356000813A09F0B7CF8091E800877F8093E80027
:103570008091E80080FFFCCF80917B02C1CF84B7AF
:10358000877F84BF0FB6F894A8958091600088610A
:1035900080936000109260000FBE80E890E00FB64C
:1035A000F89480936100909361000FBE0E944B18C5
:1035B00008950E94071D0E94641DE2EEF0E08081E4
:1035C0008460808378940E94E31F089587E091E0EF
:1035D0000E94141708958091D302853031F48091B0
:1035E000D302853019F00E94C61808950E949B18D6
:1035F0008091D102882399F30E945818882379F387
:103600000E94611B0E948806EACF08950E94091B50
:103610000895292F33272330310519F168F421301B
:10362000310509F444C02230310509F445C090E069
:1036300080E030E020E025C02132310549F122321E
:103640003105A9F780E490E028E033E061157105C9
:10365000C1F08DE690E02BE932E06130710589F030
:10366000E6CF99278130910581F0009729F00297E4
:10367000F1F6E8E1F2E002C0EAE4F2E0849190E0E1
:103680009F01FA01318320830895E6E2F2E0F6CF4C
:1036900089E090E020E632E06115710591F389E060
:1036A00090E029E732E06130710559F3C0CF82E143
:1036B00090E029E832E0E5CF8BE390E02EE432E0C1
:1036C000E0CF80E189BD82E189BD09B400FEFDCF74
:1036D0008091D8008F7D8093D8008091E000826037
:1036E0008093E0008091E00081FDFCCF0895AF92CF
:1036F000BF92CF92DF92FF920F931F93CF93DF93EE
:103700006C01EB018A010E94D61CF82E811123C0A6
:103710000115110539F0F80180819181C81BD90B81
:10372000C80ED91EB12CA12C2097A9F08091E800D9
:1037300085FD22C08091E8008E778093E800011516
:103740001105A1F0F80180819181A80EB91EB18206
:10375000A08285E0F82E8F2DDF91CF911F910F91E0
:10376000FF90DF90CF90BF90AF9008950E94D61C3D
:103770008823D1F2F82EEFCFF60181916F0180936B
:10378000F1002197FFEFAF1ABF0ACECFFC01809165
:10379000DA029091DB0286179707A0F06115710598
:1037A00029F49091E8009E779093E80090E06115ED
:1037B000710551F4911108C08091E80082FF34C076
:1037C00080E00895BC01F2CF8091D3028823C1F13B
:1037D0008530C1F18091E80083FD30C08091E80020
:1037E00082FDEACF8091E80080FFE1CF8091F30075
:1037F0002091F200382F6115710519F0283031053C
:1038000058F091E02830310509F090E02091E8006F
:103810002E772093E800CBCF81918093F100615007
:1038200071092F5F3F4FE7CF8091D302882341F08A
:10383000853041F08091E80083FFBECF81E008959C
:1038400082E0089583E00895FC018091DA0290916E
:10385000DB0286179707A0F06115710529F48091A6
:10386000E8008E778093E80090E06115710551F4CF
:10387000911108C08091E80082FF35C080E0089572
:10388000BC01F2CF8091D3028823C9F18530C9F100
:103890008091E80083FD31C08091E80082FDEACF8D
:1038A0008091E80080FFE1CF8091F3002091F20049
:1038B000382F6115710519F02830310558F091E065
:1038C0002830310509F090E08091E8008E778093F0
:1038D000E800CBCF84918093F1003196615071095B
:1038E0002F5F3F4FE6CF8091D302882341F0853090
:1038F00041F08091E80083FFBDCF81E0089582E030
:10390000089583E00895982F973028F08F70809362
:10391000E90081E008959093E900242F762F50E08C
:10392000981731F07091EC002091ED005091F0006B
:1039300021FD02C09F5FE8CF3091EB003E7F3093C6
:10394000EB003091ED003D7F3093ED003091EB00C6
:1039500031603093EB007093EC002093ED005093B6
:10396000F0002091EE0027FDE5CF80E008958091E2
:10397000D40287FF13C08091E80082FF06C08091C7
:10398000E8008B778093E80004C08091D302811116
:10399000F2CF08958091D3028823D9F38091E80073
:1039A00080FFF8CF8091E8008E77ECCF2091E40083
:1039B0003091E50095E6A9012091EC00822F8170FD
:1039C00020FF06C08091E80080FF06C080E00895D7
:1039D0002091E80022FD1AC08091D302882389F04B
:1039E000853089F08091EB0085FD0FC02091E400C7
:1039F0003091E50042175307F9F29150E1F684E067
:103A0000089582E0089583E0089581E008950E947A
:103A1000761D0E947E1DE0EEF0E080818160808353
:103A2000E8EDF0E080818F77808319BCA7EDB0E0EE
:103A30008C918E7F8C9380818F7E80831092D202B6
:103A400008950F931F93CF93DF930E94761D0E94DA
:103A50007E1DC8EDD0E088818F778883888180685B
:103A6000888388818F7D888319BC1092D30210923D
:103A7000CF021092D1021092D00200EE10E0F801B5
:103A800080818B7F808388818160888342E060E0D1
:103A900080E00E94831CE1EEF0E080818E7F8083D5
:103AA000E2EEF0E0808181608083808188608083A5
:103AB000F80180818E7F8083888180618883DF9197
:103AC000CF911F910F910895E8EDF0E080818F7EF6
:103AD0008083E7EDF0E080818160808384E082BFB5
:103AE00081E08093D2020E94211D0895E8EDF0E06C
:103AF00080818E7F80831092E20008951092DA0018
:103B00001092E10008951F920F920FB60F921124A8
:103B10002F933F934F935F936F937F938F939F93D5
:103B2000AF93BF93EF93FF938091E10082FF0BC0AF
:103B30008091E20082FF07C08091E1008B7F80933B
:103B4000E1000E94E21F8091DA0080FF19C080919D
:103B5000D80080FF15C08091DA008E7F8093DA0054
:103B60008091D90080FF96C080E189BD82E189BD46
:103B700009B400FEFDCF81E08093D3020E94C819F2
:103B80008091E10080FF19C08091E20080FF15C0A4
:103B90008091E2008E7F8093E2008091E20080615C
:103BA0008093E2008091D80080628093D80019BC95
:103BB00085E08093D3020E94DC198091E10084FFAC
:103BC0002BC08091E20084FF27C080E189BD82E1A3
:103BD00089BD89B5982F917080FFFBCF8091D80067
:103BE0008F7D8093D8008091E1008F7E8093E100EB
:103BF0008091E2008F7E8093E2008091E2008160FC
:103C00008093E2008091CF02882309F449C084E0C8
:103C10008093D3020E94E5198091E10083FF29C0BF
:103C20008091E20083FF25C08091E100877F80932F
:103C3000E10082E08093D3021092CF028091E100F4
:103C40008E7F8093E1008091E2008E7F8093E2007E
:103C50008091E20080618093E20042E060E080E0D9
:103C60000E94831C8091F00088608093F0000E9485
:103C7000D919FF91EF91BF91AF919F918F917F9152
:103C80006F915F914F913F912F910F900FBE0F90C9
:103C90001F90189519BC1092D3020E94D61970CFAC
:103CA0008091E30087FD93E09093D302B3CF1F92FE
:103CB0000F920FB60F9211242F933F934F935F9360
:103CC0006F937F938F939F93AF93BF93CF93DF9324
:103CD000EF93FF93D091E900DF708091EC00C82F43
:103CE000C17080FDC0E81092E9008091F000877FEC
:103CF0008093F00078940E949B1E1092E9008091BE
:103D0000F00088608093F000CD2BCF70C093E90065
:103D1000FF91EF91DF91CF91BF91AF919F918F91E3
:103D20007F916F915F914F913F912F910F900FBEB7
:103D30000F901F901895AAE2B0E0E1EAFEE10C9422
:103D40003B2084ED92E02091F100FC012193CF0112
:103D5000F2E08C3D9F07B9F70E94051A8091E800B8
:103D600083FF1EC18091D4029091D5029A3008F051
:103D700017C1E92FF0E0E153FF4D0C942620803865
:103D800099F0823809F00CC18091D8028F70873089
:103D900008F006C18093E9008091EB0085FB88273D
:103DA00080F91092E90006C08091D0029091D10272
:103DB000911182609091E800977F9093E800809342
:103DC000F1001092F1008091E8008E77E5C0882321
:103DD00009F4D3C0823009F0E3C08091D60281118A
:103DE000D6C08091D8028F702FEF280F263008F0B0
:103DF000D7C08093E9002091EB0020FFC8C093302A
:103E000031F48091EB0080628093EB00C0C0909110
:103E1000EB0090619093EB0021E030E001C0220FB5
:103E20008A95EAF72093EA001092EA008091EB006D
:103E30008860EACF8111B4C01091D6021F778091BB
:103E4000E3008078812B8093E3008091E800877FF6
:103E50008093E8000E94B71C8091E80080FFFCCFAF
:103E60008091E30080688093E30082E0111183E099
:103E70008093D30295C08058823008F091C0809121
:103E8000D6029091D7028C3D23E09207A1F583E002
:103E90008A838AE289834FB7F894DE01139620E083
:103EA0003EE051E2E32FF0E050935700E49120FF11
:103EB00003C0E295EF703F5FEF708E2F90E0EA3025
:103EC000C0F0C7968D939D932F5F243159F74FBF54
:103ED0008091E800877F8093E8006AE270E0CE017D
:103EE00001960E94C61B8091E8008B778093E800C2
:103EF00057C0C096E7CF6091D8027091D902AE0149
:103F00004F5F5F4F0E94061BBC01892B09F448C01C
:103F10009091E800977F9093E80089819A810E94B0
:103F2000241CE1CF8038E1F58091E800877F809301
:103F3000E8008091CF028093F10045CF811130C01D
:103F40009091D602923060F58091E800877F80934F
:103F5000E8009093CF020E94B71C8091CF02882383
:103F600011F084E005C08091E30087FDFACF81E085
:103F70008093D3020E94F01913C08091D602813041
:103F800079F481E0933009F080E08093D1021092BF
:103F9000E9008091E800877F8093E8000E94B71CC9
:103FA0008091E80083FF0AC08091E800877F8093BA
:103FB000E8008091EB0080628093EB00AA96E3E03A
:103FC0000C9457200895CF938091D3028823A1F0B9
:103FD000C091E900CF709091EC00892F817090FD25
:103FE00080E8C82B1092E9008091E80083FD0E94D0
:103FF0009B1ECF70C093E900CF910895AA1BBB1BF5
:1040000051E107C0AA1FBB1FA617B70710F0A61BD8
:10401000B70B881F991F5A95A9F780959095BC01F9
:10402000CD01089597FB072E16F4009407D077FD75
:1040300009D00E94FE1F07FC05D03EF490958195A3
:104040009F4F0895709561957F4F0895EE0FFF1F64
:104050000590F491E02D09942F923F924F925F9238
:104060006F927F928F929F92AF92BF92CF92DF9288
:10407000EF92FF920F931F93CF93DF93CDB7DEB7ED
:10408000CA1BDB0B0FB6F894DEBF0FBECDBF099481
:104090002A88398848885F846E847D848C849B84D8
:1040A000AA84B984C884DF80EE80FD800C811B81E6
:1040B000AA81B981CE0FD11D0FB6F894DEBF0FBE15
:1040C000CDBFED010895FB01DC0104C08D9101908D
:1040D000801921F441505040C8F7881B990B08956E
:1040E000FB01DC0102C001900D9241505040D8F715
:1040F0000895F999FECF92BD81BDF89A992780B5B0
:104100000895A6E1B0E044E050E00C94B320A8E1AB
:10411000B0E042E050E00C94B320262FF999FECF96
:1041200092BD81BDF89A019700B4021639F01FBA0A
:1041300020BD0FB6F894FA9AF99A0FBE0895039627
:10414000272F0E948E200E948D20252F0E948E20D6
:10415000242F0C948E200196272F0E948E200C94E1
:104160008D20DC01CB01FC01F999FECF06C0F2BD28
:10417000E1BDF89A319600B40D9241505040B8F725
:104180000895F894FFCF82048204B304B304400579
:10419000E204E204E2045C05CD05DC05DC05BF1E9B
:1041A000E71ED01FE71ED01F1A1F3B1FD01F921FF4
:0241B0009E1F50
:1041B2000A0200140014144E195219C719C219BD6B
:1041C20019511901E200E900EA00B500B600B70092
:1041D200CD008301CC008A019201940121022302C5
:1041E20024022502260227022A02B300B4006F002D
:1041F2007000818283E200E900EA00B500B600B7F0
:1042020000CD008301CC008A019201940121022396
:104212000224022502260227022A02B300B4006FFA
:104222000070008182836694C634363332F69091F0
:104232009735000100FF0100010000FFFF000001AF
:044242000001FF0078
:00000001FF
